:020000000F28C7
:10000800DE00030E8312AE000408AF000A08B00039
:100018005F08B1001A288316FF2390008312142862
:10002800AA01AB01AC01AD01830171282B08803A0C
:10003800DF0080305F02031D2328FF302A020318E7
:100048005028831221082B06031D2C2820082A0675
:100058000319051023082B06031D342822082A0635
:100068000319851025082B06031D3C2824082A0699
:100078000319051127082B06031D442826082A06FC
:100088000319051229082B06031D4C2828082A06DF
:10009800031D5D2885125D28FF3083122A062B0474
:1000A800031D5D28AA01AB01051485140515051665
:1000B80085160130AA070318AB0A0030AB07FF30DA
:1000C80081000B113108DF0030088A002F088400F6
:1000D8002E0E8300DE0E5E0E090007308312990093
:1000E80083169F0185018101A0308B00283083127F
:1000F800A0000030A1005030A2000030A3007830EA
:10010800A4000030A500A030A6000030A700C83029
:0C011800A8000030A900AA01AB0191284A
:02400E009431EB
:00000001FF
